:100000004AC200006DC200006BC2000069C200005D
:1000100067C2000065C2000063C2000061C2000048
:100020005FC200005DC2000002C5000090C5000074
:1000300057C2000055C2000053C2000051C2000068
:100040004FC200004DC200004BC2000049C2000078
:1000500047C2000045C2000043C2000020C40000A7
:100060003FC200003DC200003BC2000039C2000098
:1000700037C2000035C2000033C2000031C20000A8
:100080002FC200002DC200002BC2000029C20000B8
:1000900027C2000025C2000023C2000021C20000C8
:1000A0001FC200001DC200001BC2000000010000B2
:1000B000F402120002000052018D00220000B5027D
:1000C0003F002100006401090022010055023800B0
:1000D0002101007D010900220200DF01210021022F
:1000E000009601090022030000025500210300B61A
:1000F0000109002204008D022800210400CF01091B
:10010000000300004E0104010309040E013E3E03FA
:100110005400650065006E007300790020004B00FC
:100120006500790062006F006100720064002F00BA
:100130004D006F007500730065002F004A006F00CE
:10014000790073007400690063006B000000040311
:10015000090409028D00050100C0320904000001F4
:1001600003010100092111010001223F000705835D
:100170000308000109040100010301020009211123
:100180000100012238000705840308000109040268
:1001900000020300000009211101000122210007D3
:1001A0000581034000010705020320000209040342
:1001B0000001030000000921110100012255000780
:1001C0000585030C00020904040001030000000976
:1001D00021110100012228000705860308000406FA
:1001E000C9FF0904A15C7508150026FF00954009A8
:1001F00075810295200976910295040976B102C0B5
:1002000005010904A10115002501750195200509C5
:10021000190129208102150025073500463B01758B
:10022000049501651405010939814205010901A1FF
:1002300000150026FF03750A9504093009310932BB
:1002400009358102C0150026FF03750A950209369B
:1002500009368102C005010902A101050919012918
:10026000081500250195087501810205010930096D
:100270003109381581257F750895038106050C0A1B
:1002800038021581257F750895018106C0050C0986
:1002900001A101750A950419002A9C021500269CEB
:1002A000028100050175089503190029B71500267C
:1002B000B7008100C005010906A101750195080577
:1002C0000719E029E71500250181029501750881CC
:1002D0000395057501050819012905910295017518
:1002E000039103950675081500257F050719002958
:1002F0007F8100C01201000200000040C01682048D
:10030000710200010001C136C026C106C106C11636
:10031000C1062C00000000007000B00000000000CA
:1003200078002C0300000000000000000000000026
:1003300000006D00000035000000000071000000AA
:1003400000000000000000000000000000000000AD
:100350000000540200005401540454030000000043
:10036000000048020000480148034C0200004C0114
:100370004C03000051045202000052015204520387
:10038000000000005802000058011803000000009F
:1003900000002700000014011404140300000000F2
:1003A000260024001F00080108030C0200000C01B5
:1003B0000C030000110412020000120112041203C7
:1003C00000000000330000001801180300000000C6
:1003D0001C032C0038002000A000300074001E0018
:1003E000210022002D0031006E0010002300760055
:1003F000770067005E005F006000610062006300DC
:10040000640065006600370036003F002E007F0064
:100410005000A7005400450046004700480049002E
:100420004A004B004C004D004E004F00730051003D
:100430005200530044005500560057005800590020
:100440005D005B005C005A00A200A500AD00A600A4
:1004500025002C0214000500060007000800090012
:100460000A000B000C000D000E000F0033001100FD
:1004700012001300040015001600170018001900E0
:100480001D001B001C001A00A100A300AE002C04DC
:100490002A008D02B70911241FBECFEFDAE0DEBFBC
:1004A000CDBF11E0A0E0B1E0E0E1F4E102C00590D1
:1004B0000D92AE31B107D9F721E0AEE1B1E001C054
:1004C0001D92A834B207E1F712E0CBE4D2E003C0FA
:1004D0002197FE0195D7C934D107D1F720D596C70A
:1004E0008FCD55985D9A569A08958EE191E08DD002
:1004F0008EE191E0E3D0882329F061E088E391E088
:10050000C2D65E9A8EE191E0CFD0882329F061E0D7
:1005100088E391E0C8D65E9808952AE030E040E094
:1005200050E067E18EE191E000C00F931F93DC0182
:1005300014962D933D934D935C93179718961D92A7
:100540001D921D921C921B970FB6F89400912E01DC
:1005500010912F0120913001309131010FBE0D9388
:100560001D932D933C931397E62FF0E000D11C963A
:10057000EC931C971D966C931F910F9108950F9308
:100580001F93DC011D96EC911D97F0E0F0D01C96B6
:100590008C911C978E17A1F10FB6F89440912E0103
:1005A00050912F0160913001709131010FBE0D917A
:1005B0001D912D913C911397401B510B620B730BB6
:1005C00014960D911D912D913C911797401751074D
:1005D00062077307A8F00FB6F89440912E0150916E
:1005E0002F0160913001709131010FBE4D935D93E9
:1005F0006D937C9313971C96EC9381E090E002C07E
:1006000080E090E01F910F910895CF92DF92EF92DA
:10061000FF920F931F93CF93DF93EC01B0DF00970E
:1006200081F5088519852A853B8501151105210568
:10063000310581F10FB6F89440912E0150912F01B0
:1006400060913001709131010FBEC880D980EA807D
:10065000FB804C195D096E097F094017510762073D
:100660007307C0F00FB6F89480912E0190912F017E
:10067000A0913001B09131010FBE88839983AA8384
:10068000BB83188619861A861B8681E08E8781E0D7
:1006900090E001C01E86DF91CF911F910F91FF90D6
:1006A000EF90DF90CF900895FC018685882321F09C
:1006B00081E09485911101C080E00895FC01868558
:1006C000882319F081E09485911180E008951DBA86
:1006D000109268001CBC10BE1FBA10927A001092D3
:1006E0006E0010926F0010927100109272001092C2
:1006F000C900ECEBF0E0108214B817B81AB81DB8B6
:1007000010BA108215B818B81BB81EB811BA0895DF
:10071000F894E1E6F0E020E82083108283E084BDD5
:1007200085BDEEE6F0E080818160808381E080938A
:10073000800092E0909381008093900090939100CC
:100740009093C00094E09093C1008093C200809386
:10075000C3001092C40086E880937A0020937B0047
:1007600010927E0010927D00DFD078940895E931D8
:1007700030F4EE0FEE0FFF27ED53FC4F0994EE27F8
:100780000895E1E00895E3B1E170D9F70895E3B188
:10079000E270B9F70895E3B1E47099F70895E3B111
:1007A000E87079F70895E3B1E07859F70895E9B171
:1007B000E17039F70895E9B1E27019F70895E9B1E8
:1007C000E470F9F60895E9B1E870D9F60895E6B154
:1007D000E074B9F60895E6B1E07899F60895E9B1C4
:1007E000E07479F60895E9B1E07859F60895E3B137
:1007F000E07139F60895E3B1E07219F60895E3B1B6
:10080000E07429F50895EFB1E07809F50895EFB1A6
:10081000E074E9F40895EFB1E072C9F40895EFB11E
:10082000E071A9F40895EFB1E27089F40895EFB191
:10083000E17069F40895E9B1E07149F40895E9B10E
:10084000E07229F40895ECB1E07409F40895E1E050
:100850000895F89484B7877F84BF80916000806199
:10086000809360001092600080E29EE40197F1F7AF
:1008700081E08093E00080E28093D80080E69AEEE9
:100880000197F1F724DF0C94003FFFCFF8941FDFAE
:1008900080E69AEE0197F1F70C940000FFCF8F935A
:1008A0008FB78F9380912D018D5F8D37D0F480931A
:1008B0002D0180912E018F5F80932E01D8F08091C1
:1008C0002F018F4F80932F01A8F0809130018F4F1F
:1008D0008093300178F0809131018F4F8093310106
:1008E00009C08D5780932D0180912E018E5F8093DA
:1008F0002E0128F7809132018C5F8093320158F0ED
:10090000809133018F4F8093330128F0809134011F
:100910008F4F809334018F918FBF8F911895809165
:10092000E80080FFFCCF08958091D80087FF02C0C7
:1009300085FF7CC081E08093D70080EA8093D80057
:1009400082E189BD09B400FEFDCF80E98093D80023
:100950001092E000109277011092760110927501CA
:1009600010926D0110926E0110926F011092700141
:100970001092710110927201109273011092740121
:1009800081E080936C019DE790936B0110926A0166
:1009900010926901109268018093670110925B01C7
:1009A00010925C0110925D0110925E018FE08093C5
:1009B0005F0190E29093600180E880936101109262
:1009C000620122E02093630128E020936401909368
:1009D00065018093660110925301109254011092A8
:1009E0005501109256011092570110925801109221
:1009F000590110925A0110924C0110924B01109221
:100A00004E0110924D011092500110924F01109220
:100A10005201109251011092480110924901109216
:100A20004A011092E1008CE08093E20008951F9249
:100A30000F920FB60F9211242F938F939F93EF93E2
:100A4000FF939091E1001092E10093FF0FC010928C
:100A5000E90081E08093EB001092EC0082E3809348
:100A6000ED0088E08093F0001092770192FF44C07F
:100A700080917701882309F43FC080917501882314
:100A800091F081508093750181110DC081E08093B8
:100A9000E9008091E80085FF03C01092F100F9CFD2
:100AA0008AE38093E80080916B01882329F180918B
:100AB00036018F5F809336018370F1F483E0809379
:100AC000E9008091E80085FF17C080916A018F5F7F
:100AD00080936A0120916B0182130EC010926A010B
:100AE000EDE6F1E088E08E0F21912093F1008E1366
:100AF000FBCF8AE38093E80090FF0CC080E18093F5
:100B0000E2001092770181E08093760180EA809381
:100B1000D80019BC80917601882379F094FF0DC02C
:100B200082E189BD09B400FEFDCF80E98093D80041
:100B30008DE08093E20010927601FF91EF919F91FA
:100B40008F912F910F900FBE0F901F9018951F92AD
:100B50000F920FB60F921124EF92FF920F931F93F3
:100B60002F933F934F935F936F937F938F939F93B5
:100B7000AF93BF93CF93EF93FF931092E9008091CF
:100B8000E80083FFB3C1C091F1008091F1000091B2
:100B9000F1001091F100E090F100F090F10020914F
:100BA000F1003091F10092EF9093E800863009F067
:100BB0003FC08EE0ECEAF0E04591559140175107B7
:100BC00011F0359615C0459155914E155F0511F000
:100BD00033960EC04591559184912F3F310519F000
:100BE00010F02FEF30E0281708F4822F3EEF08C0F6
:100BF000815011F77BC1891B3093E8008823A9F04D
:100C00009091E800292F2570D9F392FD72C1982F99
:100C1000813408F090E4292F222369F3FA014591E9
:100C20004093F100AF012150F7CF903449F361C1F7
:100C3000853041F48EEF8093E80071DE0068009308
:100C4000E30057C18930E1F4C1115DC00093770121
:100C5000109275018EEF8093E80081E0E6E0F3E00A
:100C600021E08093E9002093EB0095919093EC00B4
:100C700095919093ED008F5F873099F78EE13EC09C
:100C8000883039F4C03809F03EC049DE80917701E0
:100C900098C0811111C043DEC23851F4E092E900DE
:100CA0008091EB0085FB882780F91092E90001C054
:100CB00080E08093F1007CC0982F9D7F913019F5E2
:100CC000C23009F50115110509F05BC04E2D4F77B3
:100CD0009FEF940F973008F054C09EEF9093E80078
:100CE0004093E900833009F401C189E18093EB006E
:100CF00081E090E001C0880F4A95EAF78093EA000E
:100D00001092EA00F6C0E114F10409F03EC0C13AC5
:100D1000D1F4813059F403DEEDE6F1E088E08E0F86
:100D200091919093F1008E13FBCF80C0823021F41B
:100D3000F6DD80916B0145C0833009F0D7C0EFDD4F
:100D400080916C013EC0C13209F0C7C0893061F4A6
:100D50008091E80082FFFCCF8091F10080936901CF
:100D60008BEF8093E80062C08A3029F410936B0106
:100D700010926A015BC08B3009F0B8C000936C011F
:100D800055C0E114F10409F4A8C091E0E916F1049A
:100D900021F5C13AC9F4813071F4C1DD8091680157
:100DA0008093F1001092F1001092F1001092F10086
:100DB0001092F1003BC0833009F098C0B0DD809103
:100DC00067018093F10032C0C13209F086C08B30D8
:100DD00009F08CC00093670129C093E0E916F10483
:100DE00089F4C13A09F079C0813009F07FC097DDFC
:100DF000EBE5F1E08CE08E0F91919093F1008E1372
:100E0000FBCF14C094E0E916F104A1F4C13A09F053
:100E100064C0813009F06AC082DDE3E5F1E088E07A
:100E20008E0F91919093F1008E13FBCF8EEF8093F4
:100E3000E8005FC092E0E916F10409F04EC081308D
:100E4000F1F4C13A09F052C03EEF8091E800982FCA
:100E50009570D9F382FD4DC0822F213408F080E4D3
:100E6000982F992321F01092F1009150FACF281B6E
:100E70003093E8002111E9CF803439F33AC089304A
:100E800061F5C13299F50115134081F52430310522
:100E900069F58091E80082FFFCCF3091F10020914C
:100EA000F1009091F1008091F1004BEF4093E80048
:100EB0004EEF4093E800393A39F42534B9F4923CC6
:100EC000A9F48B3699F4C5DC3B3881F4253C71F4E8
:100ED0009D3161F4803751F408C0893C39F4C03445
:100EE00029F48EEF8093E8001ADDD0DC81E2809354
:100EF000EB00FF91EF91CF91BF91AF919F918F91B7
:100F00007F916F915F914F913F912F911F910F9121
:100F1000FF90EF900F900FBE0F901F901895F8DB89
:100F2000E0DAE3DAFECF80E090E008950895809162
:100F30007701882371F08FB7F89492E09093E900DD
:100F40002BE69091E80095FF03C02093E800F9CFCD
:100F50008FBF109247010895FC018091770188238B
:100F600069F19FB7F89481E08093E9002091E40053
:100F7000275E3091E80035FD0EC09FBF9091E400E0
:100F80009217E1F0909177019923C1F09FB7F894FF
:100F90008093E900EECF6093F1008091E80085FD39
:100FA00006C08AE38093E8001092750103C084E0D4
:100FB000809375019FBF81E090E0089581E0828376
:100FC00080E090E008956032710548F46A30710560
:100FD00021F16B30710521F58BE290E008956038C6
:100FE000710530F4FB01EE0FFF1FEE56FC4F0CC0F5
:100FF000613A7105A8F06F3F710509F040F4FB01FB
:10100000EE0FFF1FEE52FE4F8591949108956C3ABA
:10101000704231F488E890E3089588E290E0089502
:1010200080E090E00895662777706115710579F08A
:10103000611581E0780771F0611583E0780769F048
:10104000611582E0780761F06115744061F080E01D
:1010500090E008958FE290EF08958FE690EF089565
:1010600084EA90EF08958FE990EF089566FF02C03B
:1010700082E001C080E067FD80640895809177017F
:10108000882309F441C08FB7F89493E09093E90066
:101090009091E4009E5C23E03091E80035FD0EC0A5
:1010A0008FBF80917701882379F18091E4008917BF
:1010B00059F18FB7F8942093E900EECF90916D012C
:1010C0009093F10090916E019093F10090916F01D7
:1010D0009093F100909170019093F10090917101C3
:1010E0009093F100909172019093F10090917301AF
:1010F0009093F100909174019093F1009AE3909392
:10110000E80010926A018FBF08950F931F93CF9349
:101110008C01C62FABDF80936D0110926E016C2F96
:101120006F736F3309F464E660936F01109270017E
:101130001092710110927201109273011092740159
:10114000C8019CDF10926D0110926F01C801CF9110
:101150001F910F9193CF0F931F93CF93DF9361153F
:10116000710579F08B01EC015EDF009719F0BC018D
:10117000CE01CBDFB801CE01DF91CF911F910F914E
:10118000C4CFDF91CF911F910F910895CF93DF933B
:10119000EC0167FD03C01B8270E00CC0603CD8F41A
:1011A0006F738B81813061F41B828C819D819C01E6
:1011B000262BB901CE0107DFBC01CE01CCDF20C058
:1011C0008230F1F430E4639FB00111248C819D8161
:1011D000682B792B07C0603E48F46F7180E4689FEC
:1011E000B00111247D836C8381E009C0603F30F43D
:1011F0006295607F1C826D8382E001C08FEF8B83DC
:1012000081E090E0DF91CF9108950F938091770175
:101210008823B9F1603809F461E8403809F441E8FD
:10122000203809F421E8003809F401E88FB7F89470
:1012300094E09093E9009091E4009E5C34E050913A
:10124000E80055FD0EC08FBF809177018823C9F05B
:101250008091E4008917A9F08FB7F8943093E900E2
:10126000EECF909168019093F1006093F10040936C
:10127000F1002093F1000093F1009AE39093E800CD
:101280008FBF0F9108950F93209168016770622BB3
:1012900060936801621729F000E020E040E060E020
:1012A000B4DF0F9108950F932091680167706095E6
:1012B000622360936801621729F000E020E040E0BB
:1012C00060E0A3DF0F9108959FB7F89480917701B4
:1012D0008823C1F082E08093E9003BE62091E8009A
:1012E000822F807225FF0EC08091F100811103C012
:1012F0003093E800F3CF2091E80025FD03C02BE6F2
:101300002093E8009FBF089520914701211105C057
:10131000DBDF882329F08093470181E090E0089586
:1013200080E090E008959C0190914701992321F07D
:1013300010924701892F04C0C901C6DF882311F02C
:1013400090E008958FEF9FEF08959C0190914701E1
:10135000992311F0892F06C0C901B6DF882321F037
:101360008093470190E008958FEF9FEF0895EFE39A
:10137000F1E088E0DF011D928A95E9F788EE93E0BD
:10138000A0E0B0E083839483A583B68380E191E0FD
:1013900091838083E9E3F1E086E0DF011D928A9585
:1013A000E9F784E091E091838083109237010895FA
:1013B000CF92DF92EF92FF920F931F93CF93DF9321
:1013C0006C01EB017B01E40EF51E00E010E0CE1590
:1013D000DF0561F06991D601ED91FC910190F081FA
:1013E000E02DC6010995080F191FF1CFC801DF9143
:1013F000CF911F910F91FF90EF90DF90CF900895C4
:10140000EE0FFF1F0590F491E02D0994F894FFCFA3
:1014100000000000C608D8099307960700000000E6
:0E142000AC07D8099307970784099309A5091B
:00000001FF
