:10000000BAC10000DFC10000DDC10000DBC100009B
:10001000D9C10000D7C10000D5C10000D3C1000084
:10002000D1C10000CFC1000066C50000F4C50000CA
:10003000C9C10000C7C10000C5C10000C3C10000A4
:10004000C1C10000BFC10000BDC10000BBC10000B4
:10005000B9C10000B7C10000B5C100004AC400002A
:10006000B1C10000AFC10000ADC10000ABC10000D4
:10007000A9C10000A7C10000A5C10000A3C10000E4
:10008000A1C100009FC100009DC100009BC10000F4
:1000900099C1000097C1000095C1000093C1000004
:1000A00091C100008FC100008DC10000000100005F
:1000B000F402120002000052018D00220000B5027D
:1000C0003F002100006401090022010055023800B0
:1000D0002101007D010900220200DF01210021022F
:1000E000009601090022030000025500210300B61A
:1000F0000109002204008D022800210400CF01091B
:10010000000300004E0104010309040E013E3E03FA
:100110005400650065006E007300790020004B00FC
:100120006500790062006F006100720064002F00BA
:100130004D006F007500730065002F004A006F00CE
:10014000790073007400690063006B000000040311
:10015000090409028D00050100C0320904000001F4
:1001600003010100092111010001223F000705835D
:100170000308000109040100010301020009211123
:100180000100012238000705840308000109040268
:1001900000020300000009211101000122210007D3
:1001A0000581034000010705020320000209040342
:1001B0000001030000000921110100012255000780
:1001C0000585030C00020904040001030000000976
:1001D00021110100012228000705860308000406FA
:1001E000C9FF0904A15C7508150026FF00954009A8
:1001F00075810295200976910295040976B102C0B5
:1002000005010904A10115002501750195200509C5
:10021000190129208102150025073500463B01758B
:10022000049501651405010939814205010901A1FF
:1002300000150026FF03750A9504093009310932BB
:1002400009358102C0150026FF03750A950209369B
:1002500009368102C005010902A101050919012918
:10026000081500250195087501810205010930096D
:100270003109381581257F750895038106050C0A1B
:1002800038021581257F750895018106C0050C0986
:1002900001A101750A950419002A9C021500269CEB
:1002A000028100050175089503190029B71500267C
:1002B000B7008100C005010906A101750195080577
:1002C0000719E029E71500250181029501750881CC
:1002D0000395057501050819012905910295017518
:1002E000039103950675081500257F050719002958
:1002F0007F8100C01201000200000040C01682048D
:10030000710200010001C136C026C106C106C11636
:10031000C1062C5E7460616264346667656E362D5A
:100320003738271E1F202122232425267333762EBB
:1003300077785F4445464748494A4B4C4D4E4F50AD
:100340005152535455565758595A5B5C5D2F3130B2
:10035000636D350405060708090A0B0C0D0E0F1016
:100360001112131415161718191A1B1C1D6F717012
:10037000752A9702BC0911241FBECFEFDAE0DEBF59
:10038000CDBF11E0A0E0B1E0EAE1F4E102C00590E8
:100390000D92AE31B107D9F721E0AEE1B1E001C075
:1003A0001D92A838B207E1F711E0CBEBD1E004C011
:1003B0002197FE010E94050AC93BD107C9F713D650
:1003C0000C940B0A1DCE55985D9A5198599A5398E2
:1003D0005B9A54985C9AEDE7F0E080818E7F808391
:1003E00057985F9A80818B7F8083569A1092210163
:1003F0001092200110921F0110921E0108950F9378
:100400008EE591E02CD18FE491E029D180E491E058
:1004100026D181E391E023D182E291E020D18EE5E3
:1004200091E076D1882329F061E088E791E030D728
:100430005E9A8FE491E06CD1882351F08091200185
:1004400090912101029690932101809320015E9A60
:1004500080E491E05DD1882351F08091200190915A
:100460002101029790932101809320015E9A81E3FC
:1004700091E04ED1882351F080911E0190911F018F
:10048000029690931F0180931E015E9A82E291E092
:100490003FD1882351F080911E0190911F01029756
:1004A00090931F0180931E015E9A00E020E040912E
:1004B0001E016091200188E791E0ACD669E170E00F
:1004C00080E090E056D28FE491E018D1882329F0A3
:1004D00010922101109220015E9880E491E00ED1EB
:1004E000882329F010922101109220015E9881E367
:1004F00091E004D1882329F010921F0110921E016F
:100500005E9882E291E0FAD0882329F010921F01D0
:1005100010921E015E988EE591E0F0D0882329F0BC
:1005200061E088E791E0C4D65E980F9108952AE0D3
:1005300030E040E050E067E18EE591E020D02AE035
:1005400030E040E050E066E08FE491E018D02AE02F
:1005500030E040E050E068E080E491E010D02AE034
:1005600030E040E050E066E181E391E008D02AE02D
:1005700030E040E050E06CE082E291E000C00F9398
:100580001F93DC0114962D933D934D935C93179725
:1005900018961D921D921D921C921B970FB6F894EF
:1005A00000916E0110916F012091700130917101E5
:1005B0000FBE0D931D932D933C931397E62FF0E000
:1005C00000D11C96EC931C971D966C931F910F9174
:1005D00008950F931F93DC011D96EC911D97F0E099
:1005E000F0D01C968C911C978E17A1F10FB6F89441
:1005F00040916E0150916F01609170017091710195
:100600000FBE0D911D912D913C911397401B510BE5
:10061000620B730B14960D911D912D913C911797C0
:100620004017510762077307A8F00FB6F89440917E
:100630006E0150916F0160917001709171010FBE58
:100640004D935D936D937C9313971C96EC9381E08F
:1006500090E002C080E090E01F910F910895CF924A
:10066000DF92EF92FF920F931F93CF93DF93EC01F2
:10067000B0DF009781F5088519852A853B8501152E
:1006800011052105310581F10FB6F89440916E01F5
:1006900050916F0160917001709171010FBEC8801F
:1006A000D980EA80FB804C195D096E097F094017EB
:1006B000510762077307C0F00FB6F89480916E017E
:1006C00090916F01A0917001B09171010FBE88836C
:1006D0009983AA83BB83188619861A861B8681E0B4
:1006E0008E8781E090E001C01E86DF91CF911F913F
:1006F0000F91FF90EF90DF90CF900895FC018685D9
:10070000882321F081E09485911101C080E0089553
:10071000FC018685882319F081E09485911180E0A1
:1007200008951DBA109268001CBC10BE1FBA10922A
:100730007A0010926E0010926F0010927100109269
:1007400072001092C900ECEBF0E0108214B817B8F8
:100750001AB81DB810BA108215B818B81BB81EB850
:1007600011BA0895F894E1E6F0E020E820831082C1
:1007700083E084BD85BDEEE6F0E08081816080830A
:1007800081E08093800092E09093810080939000BC
:10079000909391009093C00094E09093C100809357
:1007A000C2008093C3001092C40086E880937A0050
:1007B00020937B0010927E0010927D0019D17894D6
:1007C0000895E93130F4EE0FEE0FFF27E351FC4FAF
:1007D0000994EE270895E1E00895E3B1E170D9F7B7
:1007E0000895E3B1E270B9F70895E3B1E47099F7C1
:1007F0000895E3B1E87079F70895E3B1E07859F727
:100800000895E9B1E17039F70895E9B1E27019F797
:100810000895E9B1E470F9F60895E9B1E870D9F600
:100820000895E6B1E074B9F60895E6B1E07899F676
:100830000895E9B1E07479F60895E9B1E07859F6E0
:100840000895E3B1E07139F60895E3B1E07219F665
:100850000895E3B1E07429F50895EFB1E07809F562
:100860000895EFB1E074E9F40895EFB1E072C9F4CE
:100870000895EFB1E071A9F40895EFB1E27089F441
:100880000895EFB1E17069F40895E9B1E07149F4B8
:100890000895E9B1E07229F40895ECB1E07409F427
:1008A0000895E1E00895F89484B7877F84BF80912C
:1008B00060008061809360001092600080E29EE49E
:1008C0000197F1F781E08093E00080E28093D80007
:1008D00080E69AEE0197F1F724DF0C94003FFFCFFA
:1008E000F8941FDF80E69AEE0197F1F70C94000070
:1008F000FFCF8F938FB78F9380916D018D5F8D3771
:10090000D0F480936D0180916E018F5F80936E01B2
:10091000D8F080916F018F4F80936F01A8F0809184
:1009200070018F4F8093700178F0809171018F4F2B
:100930008093710109C08D5780936D0180916E0184
:100940008E5F80936E0128F7809172018C5F809397
:10095000720158F0809173018F4F8093730128F0DA
:10096000809174018F4F809374018F918FBF8F910D
:100970001895CF92DF92EF92FF926B017C0119D014
:100980009B01C114D104E104F10471F012D0621B87
:10099000730B683E7340A8F381E0C81AD108E108E0
:1009A000F10828513C4FEDCFFF90EF90DF90CF90B2
:1009B00008950FB6F89466B515B2709172018091E2
:1009C0007301909174010FBE10FE05C06F3F19F0C6
:1009D0007C5F8F4F9F4F11240024660F001C660F11
:1009E000001C702908958091E80080FFFCCF0895D5
:1009F0008091D80087FF02C085FF7CC081E0809392
:100A0000D70080EA8093D80082E189BD09B400FE56
:100A1000FDCF80E98093D8001092E0001092B701DA
:100A20001092B6011092B5011092AD011092AE0174
:100A30001092AF011092B0011092B1011092B20168
:100A40001092B3011092B40181E08093AC019DE754
:100A50009093AB011092AA011092A9011092A801E3
:100A60008093A70110929B0110929C0110929D010E
:100A700010929E018FE080939F0190E29093A001DD
:100A800080E88093A1011092A20122E02093A301AB
:100A900028E02093A4019093A5018093A6011092D1
:100AA0009301109294011092950110929601109268
:100AB0009701109298011092990110929A01109248
:100AC0008C0110928B0110928E0110928D01109268
:100AD000900110928F011092920110929101109248
:100AE00088011092890110928A011092E1008CE035
:100AF0008093E20008951F920F920FB60F92112477
:100B00002F938F939F93EF93FF939091E100109217
:100B1000E10093FF0FC01092E90081E08093EB00A9
:100B20001092EC0082E38093ED0088E08093F00067
:100B30001092B70192FF44C08091B701882309F455
:100B40003FC08091B501882391F081508093B50119
:100B500081110DC081E08093E9008091E80085FF5C
:100B600003C01092F100F9CF8AE38093E8008091EE
:100B7000AB01882329F1809176018F5F8093760104
:100B80008370F1F483E08093E9008091E80085FFB1
:100B900017C08091AA018F5F8093AA012091AB01B9
:100BA00082130EC01092AA01EDEAF1E088E08E0FE8
:100BB00021912093F1008E13FBCF8AE38093E8000C
:100BC00090FF0CC080E18093E2001092B70181E0B9
:100BD0008093B60180EA8093D80019BC8091B60159
:100BE000882379F094FF0DC082E189BD09B400FE2D
:100BF000FDCF80E98093D8008DE08093E2001092D1
:100C0000B601FF91EF919F918F912F910F900FBEA1
:100C10000F901F9018951F920F920FB60F921124EC
:100C2000EF92FF920F931F932F933F934F935F93F6
:100C30006F937F938F939F93AF93BF93CF93EF93D4
:100C4000FF931092E9008091E80083FFB3C1C09147
:100C5000F1008091F1000091F1001091F100E0901D
:100C6000F100F090F1002091F1003091F10092EF4D
:100C70009093E800863009F03FC08EE0ECEAF0E0A7
:100C8000459155914017510711F0359615C0459182
:100C900055914E155F0511F033960EC04591559153
:100CA00084912F3F310519F010F02FEF30E0281715
:100CB00008F4822F3EEF08C0815011F77BC1891BD9
:100CC0003093E8008823A9F09091E800292F25703F
:100CD000D9F392FD72C1982F813408F090E4292F46
:100CE000222369F3FA0145914093F100AF012150AD
:100CF000F7CF903449F361C1853041F48EEF809392
:100D0000E80071DE00680093E30057C18930E1F428
:100D1000C1115DC00093B7011092B5018EEF8093B1
:100D2000E80081E0E6E0F3E021E08093E900209331
:100D3000EB0095919093EC0095919093ED008F5F6F
:100D4000873099F78EE13EC0883039F4C03809F019
:100D50003EC049DE8091B70198C0811111C043DEC9
:100D6000C23851F4E092E9008091EB0085FB8827BE
:100D700080F91092E90001C080E08093F1007CC00E
:100D8000982F9D7F913019F5C23009F50115110595
:100D900009F05BC04E2D4F779FEF940F973008F00E
:100DA00054C09EEF9093E8004093E900833009F42B
:100DB00001C189E18093EB0081E090E001C0880FE0
:100DC0004A95EAF78093EA001092EA00F6C0E1142F
:100DD000F10409F03EC0C13AD1F4813059F403DE88
:100DE000EDEAF1E088E08E0F91919093F1008E137F
:100DF000FBCF80C0823021F4F6DD8091AB0145C08D
:100E0000833009F0D7C0EFDD8091AC013EC0C13224
:100E100009F0C7C0893061F48091E80082FFFCCFFF
:100E20008091F1008093A9018BEF8093E80062C06C
:100E30008A3029F41093AB011092AA015BC08B3069
:100E400009F0B8C00093AC0155C0E114F10409F4F5
:100E5000A8C091E0E916F10421F5C13AC9F4813046
:100E600071F4C1DD8091A8018093F1001092F1002E
:100E70001092F1001092F1001092F1003BC083300B
:100E800009F098C0B0DD8091A7018093F10032C0D5
:100E9000C13209F086C08B3009F08CC00093A701E5
:100EA00029C093E0E916F10489F4C13A09F079C048
:100EB000813009F07FC097DDEBE9F1E08CE08E0F27
:100EC00091919093F1008E13FBCF14C094E0E9163A
:100ED000F104A1F4C13A09F064C0813009F06AC09C
:100EE00082DDE3E9F1E088E08E0F91919093F100CB
:100EF0008E13FBCF8EEF8093E8005FC092E0E9167F
:100F0000F10409F04EC08130F1F4C13A09F052C049
:100F10003EEF8091E800982F9570D9F382FD4DC087
:100F2000822F213408F080E4982F992321F0109229
:100F3000F1009150FACF281B3093E8002111E9CF3E
:100F4000803439F33AC0893061F5C13299F5011521
:100F5000134081F52430310569F58091E80082FF66
:100F6000FCCF3091F1002091F1009091F10080913F
:100F7000F1004BEF4093E8004EEF4093E800393A20
:100F800039F42534B9F4923CA9F48B3699F48BDC0E
:100F90003B3881F4253C71F49D3161F4803751F484
:100FA00008C0893C39F4C03429F48EEF8093E800FE
:100FB0001ADD96DC81E28093EB00FF91EF91CF91F7
:100FC000BF91AF919F918F917F916F915F914F9161
:100FD0003F912F911F910F91FF90EF900F900FBEB7
:100FE0000F901F901895BEDBEED909DAFECF80E096
:100FF00090E0089508958091B701882371F08FB72C
:10100000F89492E09093E9002BE69091E80095FF28
:1010100003C02093E800F9CF8FBF10928701089595
:10102000FC018091B701882369F19FB7F89481E0B2
:101030008093E9002091E400275E3091E80035FDBF
:101040000EC09FBF9091E4009217E1F09091B7011C
:101050009923C1F09FB7F8948093E900EECF609395
:10106000F1008091E80085FD06C08AE38093E800E6
:101070001092B50103C084E08093B5019FBF81E069
:1010800090E0089581E0828380E090E008956032EE
:10109000710540F46A30710569F06B30710561F4D7
:1010A0008BE208956038710538F4FB01EE50FD4F76
:1010B0008491089588E2089580E008958091B701B1
:1010C000882309F441C08FB7F89493E09093E90026
:1010D0009091E4009E5C23E03091E80035FD0EC065
:1010E0008FBF8091B701882379F18091E40089173F
:1010F00059F18FB7F8942093E900EECF9091AD01AC
:101100009093F1009091AE019093F1009091AF0116
:101110009093F1009091B0019093F1009091B10102
:101120009093F1009091B2019093F1009091B301EE
:101130009093F1009091B4019093F1009AE3909311
:10114000E8001092AA018FBF0895CF93DF93EC01BE
:1011500066FF02C082E001C080E08093AD01109282
:10116000AE016F736093AF011092B0011092B101A4
:101170001092B2011092B3011092B401CE019EDF21
:101180001092AD011092AF01CE01DF91CF9196CFB9
:101190006111DBCF0895CF93DF93EC0167FD03C0AE
:1011A0001B8270E00CC0603CD8F46F738B8181307F
:1011B00061F41B828C819D819C01262BB901CE019B
:1011C00066DF682FCE01E4DF20C08230F1F430E426
:1011D000639FB00111248C819D81682B792B07C0FE
:1011E000603E48F46F7180E4689FB00111247D83F4
:1011F0006C8381E009C0603F30F46295607F1C829F
:101200006D8382E001C08FEF8B8381E090E0DF91FE
:10121000CF9108950F938091B7018823B9F1603879
:1012200009F461E8403809F441E8203809F421E87C
:10123000003809F401E88FB7F89494E09093E9003E
:101240009091E4009E5C34E05091E80055FD0EC0A2
:101250008FBF8091B7018823C9F08091E40089177E
:10126000A9F08FB7F8943093E900EECF9091A801E0
:101270009093F1006093F1004093F1002093F1000E
:101280000093F1009AE39093E8008FBF0F910895C7
:101290000F932091A8016770622B6093A8016217D9
:1012A00029F000E020E040E060E0B4DF0F91089515
:1012B0000F932091A8016770609562236093A80145
:1012C000621729F000E020E040E060E0A3DF0F912A
:1012D00008959FB7F8948091B7018823C1F082E008
:1012E0008093E9003BE62091E800822F807225FF81
:1012F0000EC08091F100811103C03093E800F3CF5C
:101300002091E80025FD03C02BE62093E8009FBF55
:10131000089520918701211105C0DBDF882329F082
:101320008093870181E090E0089580E090E0089547
:101330009C0190918701992321F010928701892FB8
:1013400004C0C901C6DF882311F090E008958FEF33
:101350009FEF08959C0190918701992311F0892FA7
:1013600006C0C901B6DF882321F08093870190E091
:1013700008958FEF9FEF0895EFE7F1E088E0DF0138
:101380001D928A95E9F788EE93E0A0E0B0E08383B0
:101390009483A583B68380E191E091838083E9E71C
:1013A000F1E086E0DF011D928A95E9F784E091E0A3
:1013B00091838083109277010895CF92DF92EF920C
:1013C000FF920F931F93CF93DF936C01EB017B018F
:1013D000E40EF51E00E010E0CE15DF0561F0699126
:1013E000D601ED91FC910190F081E02DC6010995A7
:1013F000080F191FF1CFC801DF91CF911F910F91F5
:10140000FF90EF90DF90CF900895EE0FFF1F0590B3
:0A141000F491E02D0994F894FFCF49
:10141A0000000000CB08DD09F707FA07000000000A
:0E142A001008DD09F707FB0789099809AA09D0
:00000001FF
